{
  "_format": "hh-sol-artifact-1",
  "contractName": "MediaRental",
  "sourceName": "contracts/MediaRental.sol",
  "abi": [
    {
      "inputs": [
        {
          "internalType": "address",
          "name": "registryAddress",
          "type": "address"
        }
      ],
      "stateMutability": "nonpayable",
      "type": "constructor"
    },
    {
      "inputs": [
        {
          "internalType": "address",
          "name": "owner",
          "type": "address"
        }
      ],
      "name": "OwnableInvalidOwner",
      "type": "error"
    },
    {
      "inputs": [
        {
          "internalType": "address",
          "name": "account",
          "type": "address"
        }
      ],
      "name": "OwnableUnauthorizedAccount",
      "type": "error"
    },
    {
      "anonymous": false,
      "inputs": [
        {
          "indexed": true,
          "internalType": "address",
          "name": "previousOwner",
          "type": "address"
        },
        {
          "indexed": true,
          "internalType": "address",
          "name": "newOwner",
          "type": "address"
        }
      ],
      "name": "OwnershipTransferred",
      "type": "event"
    },
    {
      "anonymous": false,
      "inputs": [
        {
          "indexed": true,
          "internalType": "uint256",
          "name": "tokenId",
          "type": "uint256"
        }
      ],
      "name": "Reclaimed",
      "type": "event"
    },
    {
      "anonymous": false,
      "inputs": [
        {
          "indexed": true,
          "internalType": "uint256",
          "name": "tokenId",
          "type": "uint256"
        },
        {
          "indexed": true,
          "internalType": "address",
          "name": "renter",
          "type": "address"
        },
        {
          "indexed": false,
          "internalType": "uint64",
          "name": "expires",
          "type": "uint64"
        }
      ],
      "name": "Rented",
      "type": "event"
    },
    {
      "anonymous": false,
      "inputs": [
        {
          "indexed": true,
          "internalType": "uint256",
          "name": "tokenId",
          "type": "uint256"
        }
      ],
      "name": "Returned",
      "type": "event"
    },
    {
      "inputs": [
        {
          "internalType": "uint256",
          "name": "tokenId",
          "type": "uint256"
        }
      ],
      "name": "getRental",
      "outputs": [
        {
          "internalType": "address",
          "name": "renter",
          "type": "address"
        },
        {
          "internalType": "uint64",
          "name": "expires",
          "type": "uint64"
        }
      ],
      "stateMutability": "view",
      "type": "function"
    },
    {
      "inputs": [
        {
          "internalType": "uint256",
          "name": "tokenId",
          "type": "uint256"
        }
      ],
      "name": "isRented",
      "outputs": [
        {
          "internalType": "bool",
          "name": "",
          "type": "bool"
        }
      ],
      "stateMutability": "view",
      "type": "function"
    },
    {
      "inputs": [],
      "name": "owner",
      "outputs": [
        {
          "internalType": "address",
          "name": "",
          "type": "address"
        }
      ],
      "stateMutability": "view",
      "type": "function"
    },
    {
      "inputs": [
        {
          "internalType": "uint256",
          "name": "tokenId",
          "type": "uint256"
        }
      ],
      "name": "reclaim",
      "outputs": [],
      "stateMutability": "nonpayable",
      "type": "function"
    },
    {
      "inputs": [],
      "name": "registry",
      "outputs": [
        {
          "internalType": "contract IMediaRegistryRental",
          "name": "",
          "type": "address"
        }
      ],
      "stateMutability": "view",
      "type": "function"
    },
    {
      "inputs": [],
      "name": "renounceOwnership",
      "outputs": [],
      "stateMutability": "nonpayable",
      "type": "function"
    },
    {
      "inputs": [
        {
          "internalType": "uint256",
          "name": "tokenId",
          "type": "uint256"
        },
        {
          "internalType": "address",
          "name": "renter",
          "type": "address"
        },
        {
          "internalType": "uint64",
          "name": "duration",
          "type": "uint64"
        }
      ],
      "name": "rentOut",
      "outputs": [],
      "stateMutability": "nonpayable",
      "type": "function"
    },
    {
      "inputs": [
        {
          "internalType": "uint256",
          "name": "",
          "type": "uint256"
        }
      ],
      "name": "rentals",
      "outputs": [
        {
          "internalType": "address",
          "name": "renter",
          "type": "address"
        },
        {
          "internalType": "uint64",
          "name": "expires",
          "type": "uint64"
        }
      ],
      "stateMutability": "view",
      "type": "function"
    },
    {
      "inputs": [
        {
          "internalType": "uint256",
          "name": "tokenId",
          "type": "uint256"
        }
      ],
      "name": "returnToken",
      "outputs": [],
      "stateMutability": "nonpayable",
      "type": "function"
    },
    {
      "inputs": [
        {
          "internalType": "address",
          "name": "newOwner",
          "type": "address"
        }
      ],
      "name": "transferOwnership",
      "outputs": [],
      "stateMutability": "nonpayable",
      "type": "function"
    }
  ],
  "bytecode": "0x60a060405234801561001057600080fd5b50604051610ad3380380610ad383398101604081905261002f91610117565b338061005657604051631e4fbdf760e01b8152600060048201526024015b60405180910390fd5b61005f816100c7565b506001600160a01b0381166100b65760405162461bcd60e51b815260206004820152601860248201527f496e76616c696420726567697374727920616464726573730000000000000000604482015260640161004d565b6001600160a01b0316608052610147565b600080546001600160a01b038381166001600160a01b0319831681178455604051919092169283917f8be0079c531659141344cd1fd0a4f28419497f9722a3daafe3b4186f6b6457e09190a35050565b60006020828403121561012957600080fd5b81516001600160a01b038116811461014057600080fd5b9392505050565b608051610963610170600039600081816101550152818161026401526105c901526109636000f3fe608060405234801561001057600080fd5b506004361061009e5760003560e01c80638da5cb5b116100665780638da5cb5b1461018f578063aa15d40f146101a0578063ac9e5b43146101e3578063af94a1d1146101f6578063f2fde38b1461023157600080fd5b80632dabbeed146100a35780636178efee146100b8578063652bd29e146100cb578063715018a6146101485780637b10399914610150575b600080fd5b6100b66100b1366004610849565b610244565b005b6100b66100c6366004610849565b6103f5565b61011c6100d9366004610849565b6000908152600160209081526040918290208251808401909352546001600160a01b038116808452600160a01b9091046001600160401b03169290910182905291565b604080516001600160a01b0390931683526001600160401b039091166020830152015b60405180910390f35b6100b6610505565b6101777f000000000000000000000000000000000000000000000000000000000000000081565b6040516001600160a01b03909116815260200161013f565b6000546001600160a01b0316610177565b6101d36101ae366004610849565b60009081526001602052604090205442600160a01b9091046001600160401b03161190565b604051901515815260200161013f565b6100b66101f1366004610877565b610519565b61011c610204366004610849565b6001602052600090815260409020546001600160a01b03811690600160a01b90046001600160401b031682565b6100b661023f3660046108c5565b61078e565b6040516331a9108f60e11b81526004810182905233906001600160a01b037f00000000000000000000000000000000000000000000000000000000000000001690636352211e90602401602060405180830381865afa1580156102ab573d6000803e3d6000fd5b505050506040513d601f19601f820116820180604052508101906102cf91906108e9565b6001600160a01b03161461031c5760405162461bcd60e51b815260206004820152600f60248201526e2737ba103a37b5b2b71037bbb732b960891b60448201526064015b60405180910390fd5b6000818152600160209081526040918290208251808401909352546001600160a01b0381168352600160a01b90046001600160401b031690820181905215801590610374575080602001516001600160401b03164210155b6103ae5760405162461bcd60e51b815260206004820152600b60248201526a139bdd08195e1c1a5c995960aa1b6044820152606401610313565b60008281526001602052604080822080546001600160e01b03191690555183917f8ead5713a73bdd75350d3a725de9c215bb2ebde2d01d107e2e7c34a58d6a190291a25050565b6000818152600160209081526040918290208251808401909352546001600160a01b038116808452600160a01b9091046001600160401b03169183019190915233146104705760405162461bcd60e51b815260206004820152600a6024820152692737ba103932b73a32b960b11b6044820152606401610313565b80602001516001600160401b031642106104be5760405162461bcd60e51b815260206004820152600f60248201526e105b1c9958591e48195e1c1a5c9959608a1b6044820152606401610313565b60008281526001602052604080822080546001600160e01b03191690555183917ff8c86c3655fab14dd6996efe90c18eec2193e12c9e41f83d8a7645284f12e91c91a25050565b61050d6107cc565b61051760006107f9565b565b6001600160a01b0382166105605760405162461bcd60e51b815260206004820152600e60248201526d24b73b30b634b2103932b73a32b960911b6044820152606401610313565b6000816001600160401b0316116105a95760405162461bcd60e51b815260206004820152600d60248201526c4475726174696f6e207a65726f60981b6044820152606401610313565b6040516331a9108f60e11b81526004810184905233906001600160a01b037f00000000000000000000000000000000000000000000000000000000000000001690636352211e90602401602060405180830381865afa158015610610573d6000803e3d6000fd5b505050506040513d601f19601f8201168201806040525081019061063491906108e9565b6001600160a01b03161461067c5760405162461bcd60e51b815260206004820152600f60248201526e2737ba103a37b5b2b71037bbb732b960891b6044820152606401610313565b60008381526001602052604090208054600160a01b90046001600160401b03164210156106dc5760405162461bcd60e51b815260206004820152600e60248201526d105b1c9958591e481c995b9d195960921b6044820152606401610313565b60006106f16001600160401b03841642610906565b6040805180820182526001600160a01b038781168083526001600160401b03858116602080860182815260008e81526001835288902096518754915196166001600160e01b031990911617600160a01b9590931694909402919091179093559251918252929350909187917f83e5bf02968b47913945c6e5b2cbbf0bec189a1abfe07d3248b6294d22385abe910160405180910390a35050505050565b6107966107cc565b6001600160a01b0381166107c057604051631e4fbdf760e01b815260006004820152602401610313565b6107c9816107f9565b50565b6000546001600160a01b031633146105175760405163118cdaa760e01b8152336004820152602401610313565b600080546001600160a01b038381166001600160a01b0319831681178455604051919092169283917f8be0079c531659141344cd1fd0a4f28419497f9722a3daafe3b4186f6b6457e09190a35050565b60006020828403121561085b57600080fd5b5035919050565b6001600160a01b03811681146107c957600080fd5b60008060006060848603121561088c57600080fd5b83359250602084013561089e81610862565b915060408401356001600160401b03811681146108ba57600080fd5b809150509250925092565b6000602082840312156108d757600080fd5b81356108e281610862565b9392505050565b6000602082840312156108fb57600080fd5b81516108e281610862565b8082018082111561092757634e487b7160e01b600052601160045260246000fd5b9291505056fea26469706673582212200699b17257a7595f344f349b08cbe7ea5a104384cfbb94673302e60ec924c22364736f6c63430008180033",
  "linkReferences": {},
  "deployedLinkReferences": {}
}