{
  "_format": "hh-sol-artifact-1",
  "contractName": "MediaRegistry",
  "sourceName": "contracts/MediaRegistry.sol",
  "abi": [
    {
      "inputs": [],
      "stateMutability": "nonpayable",
      "type": "constructor"
    },
    {
      "inputs": [
        {
          "internalType": "uint256",
          "name": "numerator",
          "type": "uint256"
        },
        {
          "internalType": "uint256",
          "name": "denominator",
          "type": "uint256"
        }
      ],
      "name": "ERC2981InvalidDefaultRoyalty",
      "type": "error"
    },
    {
      "inputs": [
        {
          "internalType": "address",
          "name": "receiver",
          "type": "address"
        }
      ],
      "name": "ERC2981InvalidDefaultRoyaltyReceiver",
      "type": "error"
    },
    {
      "inputs": [
        {
          "internalType": "uint256",
          "name": "tokenId",
          "type": "uint256"
        },
        {
          "internalType": "uint256",
          "name": "numerator",
          "type": "uint256"
        },
        {
          "internalType": "uint256",
          "name": "denominator",
          "type": "uint256"
        }
      ],
      "name": "ERC2981InvalidTokenRoyalty",
      "type": "error"
    },
    {
      "inputs": [
        {
          "internalType": "uint256",
          "name": "tokenId",
          "type": "uint256"
        },
        {
          "internalType": "address",
          "name": "receiver",
          "type": "address"
        }
      ],
      "name": "ERC2981InvalidTokenRoyaltyReceiver",
      "type": "error"
    },
    {
      "inputs": [
        {
          "internalType": "address",
          "name": "sender",
          "type": "address"
        },
        {
          "internalType": "uint256",
          "name": "tokenId",
          "type": "uint256"
        },
        {
          "internalType": "address",
          "name": "owner",
          "type": "address"
        }
      ],
      "name": "ERC721IncorrectOwner",
      "type": "error"
    },
    {
      "inputs": [
        {
          "internalType": "address",
          "name": "operator",
          "type": "address"
        },
        {
          "internalType": "uint256",
          "name": "tokenId",
          "type": "uint256"
        }
      ],
      "name": "ERC721InsufficientApproval",
      "type": "error"
    },
    {
      "inputs": [
        {
          "internalType": "address",
          "name": "approver",
          "type": "address"
        }
      ],
      "name": "ERC721InvalidApprover",
      "type": "error"
    },
    {
      "inputs": [
        {
          "internalType": "address",
          "name": "operator",
          "type": "address"
        }
      ],
      "name": "ERC721InvalidOperator",
      "type": "error"
    },
    {
      "inputs": [
        {
          "internalType": "address",
          "name": "owner",
          "type": "address"
        }
      ],
      "name": "ERC721InvalidOwner",
      "type": "error"
    },
    {
      "inputs": [
        {
          "internalType": "address",
          "name": "receiver",
          "type": "address"
        }
      ],
      "name": "ERC721InvalidReceiver",
      "type": "error"
    },
    {
      "inputs": [
        {
          "internalType": "address",
          "name": "sender",
          "type": "address"
        }
      ],
      "name": "ERC721InvalidSender",
      "type": "error"
    },
    {
      "inputs": [
        {
          "internalType": "uint256",
          "name": "tokenId",
          "type": "uint256"
        }
      ],
      "name": "ERC721NonexistentToken",
      "type": "error"
    },
    {
      "inputs": [
        {
          "internalType": "address",
          "name": "owner",
          "type": "address"
        }
      ],
      "name": "OwnableInvalidOwner",
      "type": "error"
    },
    {
      "inputs": [
        {
          "internalType": "address",
          "name": "account",
          "type": "address"
        }
      ],
      "name": "OwnableUnauthorizedAccount",
      "type": "error"
    },
    {
      "anonymous": false,
      "inputs": [
        {
          "indexed": true,
          "internalType": "address",
          "name": "owner",
          "type": "address"
        },
        {
          "indexed": true,
          "internalType": "address",
          "name": "approved",
          "type": "address"
        },
        {
          "indexed": true,
          "internalType": "uint256",
          "name": "tokenId",
          "type": "uint256"
        }
      ],
      "name": "Approval",
      "type": "event"
    },
    {
      "anonymous": false,
      "inputs": [
        {
          "indexed": true,
          "internalType": "address",
          "name": "owner",
          "type": "address"
        },
        {
          "indexed": true,
          "internalType": "address",
          "name": "operator",
          "type": "address"
        },
        {
          "indexed": false,
          "internalType": "bool",
          "name": "approved",
          "type": "bool"
        }
      ],
      "name": "ApprovalForAll",
      "type": "event"
    },
    {
      "anonymous": false,
      "inputs": [
        {
          "indexed": false,
          "internalType": "uint256",
          "name": "_fromTokenId",
          "type": "uint256"
        },
        {
          "indexed": false,
          "internalType": "uint256",
          "name": "_toTokenId",
          "type": "uint256"
        }
      ],
      "name": "BatchMetadataUpdate",
      "type": "event"
    },
    {
      "anonymous": false,
      "inputs": [
        {
          "indexed": true,
          "internalType": "uint256",
          "name": "tokenId",
          "type": "uint256"
        },
        {
          "indexed": true,
          "internalType": "bytes32",
          "name": "contentHash",
          "type": "bytes32"
        },
        {
          "indexed": false,
          "internalType": "string",
          "name": "metadataURI",
          "type": "string"
        },
        {
          "indexed": true,
          "internalType": "address",
          "name": "owner",
          "type": "address"
        }
      ],
      "name": "MediaRegistered",
      "type": "event"
    },
    {
      "anonymous": false,
      "inputs": [
        {
          "indexed": false,
          "internalType": "uint256",
          "name": "_tokenId",
          "type": "uint256"
        }
      ],
      "name": "MetadataUpdate",
      "type": "event"
    },
    {
      "anonymous": false,
      "inputs": [
        {
          "indexed": true,
          "internalType": "address",
          "name": "previousOwner",
          "type": "address"
        },
        {
          "indexed": true,
          "internalType": "address",
          "name": "newOwner",
          "type": "address"
        }
      ],
      "name": "OwnershipTransferred",
      "type": "event"
    },
    {
      "anonymous": false,
      "inputs": [
        {
          "indexed": true,
          "internalType": "address",
          "name": "from",
          "type": "address"
        },
        {
          "indexed": true,
          "internalType": "address",
          "name": "to",
          "type": "address"
        },
        {
          "indexed": true,
          "internalType": "uint256",
          "name": "tokenId",
          "type": "uint256"
        }
      ],
      "name": "Transfer",
      "type": "event"
    },
    {
      "inputs": [
        {
          "internalType": "address",
          "name": "to",
          "type": "address"
        },
        {
          "internalType": "uint256",
          "name": "tokenId",
          "type": "uint256"
        }
      ],
      "name": "approve",
      "outputs": [],
      "stateMutability": "nonpayable",
      "type": "function"
    },
    {
      "inputs": [
        {
          "internalType": "address",
          "name": "owner",
          "type": "address"
        }
      ],
      "name": "balanceOf",
      "outputs": [
        {
          "internalType": "uint256",
          "name": "",
          "type": "uint256"
        }
      ],
      "stateMutability": "view",
      "type": "function"
    },
    {
      "inputs": [
        {
          "internalType": "uint256",
          "name": "tokenId",
          "type": "uint256"
        }
      ],
      "name": "getApproved",
      "outputs": [
        {
          "internalType": "address",
          "name": "",
          "type": "address"
        }
      ],
      "stateMutability": "view",
      "type": "function"
    },
    {
      "inputs": [
        {
          "internalType": "uint256",
          "name": "tokenId",
          "type": "uint256"
        }
      ],
      "name": "getMedia",
      "outputs": [
        {
          "internalType": "bytes32",
          "name": "contentHash",
          "type": "bytes32"
        },
        {
          "internalType": "string",
          "name": "metadataURI",
          "type": "string"
        }
      ],
      "stateMutability": "view",
      "type": "function"
    },
    {
      "inputs": [
        {
          "internalType": "address",
          "name": "owner",
          "type": "address"
        },
        {
          "internalType": "address",
          "name": "operator",
          "type": "address"
        }
      ],
      "name": "isApprovedForAll",
      "outputs": [
        {
          "internalType": "bool",
          "name": "",
          "type": "bool"
        }
      ],
      "stateMutability": "view",
      "type": "function"
    },
    {
      "inputs": [],
      "name": "name",
      "outputs": [
        {
          "internalType": "string",
          "name": "",
          "type": "string"
        }
      ],
      "stateMutability": "view",
      "type": "function"
    },
    {
      "inputs": [],
      "name": "owner",
      "outputs": [
        {
          "internalType": "address",
          "name": "",
          "type": "address"
        }
      ],
      "stateMutability": "view",
      "type": "function"
    },
    {
      "inputs": [
        {
          "internalType": "uint256",
          "name": "tokenId",
          "type": "uint256"
        }
      ],
      "name": "ownerOf",
      "outputs": [
        {
          "internalType": "address",
          "name": "",
          "type": "address"
        }
      ],
      "stateMutability": "view",
      "type": "function"
    },
    {
      "inputs": [
        {
          "internalType": "bytes32",
          "name": "contentHash",
          "type": "bytes32"
        },
        {
          "internalType": "string",
          "name": "metadataURI",
          "type": "string"
        }
      ],
      "name": "registerMedia",
      "outputs": [
        {
          "internalType": "uint256",
          "name": "tokenId",
          "type": "uint256"
        }
      ],
      "stateMutability": "nonpayable",
      "type": "function"
    },
    {
      "inputs": [],
      "name": "renounceOwnership",
      "outputs": [],
      "stateMutability": "nonpayable",
      "type": "function"
    },
    {
      "inputs": [
        {
          "internalType": "uint256",
          "name": "tokenId",
          "type": "uint256"
        },
        {
          "internalType": "uint256",
          "name": "salePrice",
          "type": "uint256"
        }
      ],
      "name": "royaltyInfo",
      "outputs": [
        {
          "internalType": "address",
          "name": "receiver",
          "type": "address"
        },
        {
          "internalType": "uint256",
          "name": "amount",
          "type": "uint256"
        }
      ],
      "stateMutability": "view",
      "type": "function"
    },
    {
      "inputs": [
        {
          "internalType": "address",
          "name": "from",
          "type": "address"
        },
        {
          "internalType": "address",
          "name": "to",
          "type": "address"
        },
        {
          "internalType": "uint256",
          "name": "tokenId",
          "type": "uint256"
        }
      ],
      "name": "safeTransferFrom",
      "outputs": [],
      "stateMutability": "nonpayable",
      "type": "function"
    },
    {
      "inputs": [
        {
          "internalType": "address",
          "name": "from",
          "type": "address"
        },
        {
          "internalType": "address",
          "name": "to",
          "type": "address"
        },
        {
          "internalType": "uint256",
          "name": "tokenId",
          "type": "uint256"
        },
        {
          "internalType": "bytes",
          "name": "data",
          "type": "bytes"
        }
      ],
      "name": "safeTransferFrom",
      "outputs": [],
      "stateMutability": "nonpayable",
      "type": "function"
    },
    {
      "inputs": [
        {
          "internalType": "address",
          "name": "operator",
          "type": "address"
        },
        {
          "internalType": "bool",
          "name": "approved",
          "type": "bool"
        }
      ],
      "name": "setApprovalForAll",
      "outputs": [],
      "stateMutability": "nonpayable",
      "type": "function"
    },
    {
      "inputs": [
        {
          "internalType": "uint256",
          "name": "tokenId",
          "type": "uint256"
        },
        {
          "internalType": "address",
          "name": "receiver",
          "type": "address"
        },
        {
          "internalType": "uint96",
          "name": "feeNumerator",
          "type": "uint96"
        }
      ],
      "name": "setTokenRoyalty",
      "outputs": [],
      "stateMutability": "nonpayable",
      "type": "function"
    },
    {
      "inputs": [
        {
          "internalType": "bytes4",
          "name": "interfaceId",
          "type": "bytes4"
        }
      ],
      "name": "supportsInterface",
      "outputs": [
        {
          "internalType": "bool",
          "name": "",
          "type": "bool"
        }
      ],
      "stateMutability": "view",
      "type": "function"
    },
    {
      "inputs": [],
      "name": "symbol",
      "outputs": [
        {
          "internalType": "string",
          "name": "",
          "type": "string"
        }
      ],
      "stateMutability": "view",
      "type": "function"
    },
    {
      "inputs": [
        {
          "internalType": "uint256",
          "name": "tokenId",
          "type": "uint256"
        }
      ],
      "name": "tokenURI",
      "outputs": [
        {
          "internalType": "string",
          "name": "",
          "type": "string"
        }
      ],
      "stateMutability": "view",
      "type": "function"
    },
    {
      "inputs": [
        {
          "internalType": "address",
          "name": "from",
          "type": "address"
        },
        {
          "internalType": "address",
          "name": "to",
          "type": "address"
        },
        {
          "internalType": "uint256",
          "name": "tokenId",
          "type": "uint256"
        }
      ],
      "name": "transferFrom",
      "outputs": [],
      "stateMutability": "nonpayable",
      "type": "function"
    },
    {
      "inputs": [
        {
          "internalType": "address",
          "name": "newOwner",
          "type": "address"
        }
      ],
      "name": "transferOwnership",
      "outputs": [],
      "stateMutability": "nonpayable",
      "type": "function"
    },
    {
      "inputs": [
        {
          "internalType": "bytes32",
          "name": "contentHash",
          "type": "bytes32"
        }
      ],
      "name": "verifyContent",
      "outputs": [
        {
          "internalType": "uint256",
          "name": "tokenId",
          "type": "uint256"
        }
      ],
      "stateMutability": "view",
      "type": "function"
    }
  ],
  "bytecode": "0x60806040523480156200001157600080fd5b50336040518060400160405280601081526020016f426c6f636b636861696e204d6564696160801b81525060405180604001604052806006815260200165424d4544494160d01b81525081600290816200006c91906200026e565b5060036200007b82826200026e565b5050506001600160a01b038116620000ae57604051631e4fbdf760e01b8152600060048201526024015b60405180910390fd5b620000b981620000ce565b50620000c8336101f462000120565b6200033a565b600980546001600160a01b038381166001600160a01b0319831681179093556040519116919082907f8be0079c531659141344cd1fd0a4f28419497f9722a3daafe3b4186f6b6457e090600090a35050565b6127106001600160601b0382168110156200016157604051636f483d0960e01b81526001600160601b038316600482015260248101829052604401620000a5565b6001600160a01b0383166200018d57604051635b6cc80560e11b815260006004820152602401620000a5565b50604080518082019091526001600160a01b039092168083526001600160601b039091166020909201829052600160a01b90910217600055565b634e487b7160e01b600052604160045260246000fd5b600181811c90821680620001f257607f821691505b6020821081036200021357634e487b7160e01b600052602260045260246000fd5b50919050565b601f82111562000269576000816000526020600020601f850160051c81016020861015620002445750805b601f850160051c820191505b81811015620002655782815560010162000250565b5050505b505050565b81516001600160401b038111156200028a576200028a620001c7565b620002a2816200029b8454620001dd565b8462000219565b602080601f831160018114620002da5760008415620002c15750858301515b600019600386901b1c1916600185901b17855562000265565b600085815260208120601f198616915b828110156200030b57888601518255948401946001909101908401620002ea565b50858210156200032a5787850151600019600388901b60f8161c191681555b5050505050600190811b01905550565b611a25806200034a6000396000f3fe608060405234801561001057600080fd5b50600436106101375760003560e01c80636352211e116100b8578063a22cb4651161007c578063a22cb465146102ac578063b88d4fde146102bf578063c87b56dd146102d2578063dfa2ed6a146102e5578063e985e9c514610306578063f2fde38b1461031957600080fd5b80636352211e1461026557806370a0823114610278578063715018a61461028b5780638da5cb5b1461029357806395d89b41146102a457600080fd5b806323b872dd116100ff57806323b872dd146101da5780632a55205a146101ed57806342842e0e1461021f578063430fe759146102325780635944c7531461025257600080fd5b806301ffc9a71461013c57806306fdde0314610164578063081812fc14610179578063095ea7b3146101a45780630cc6b06d146101b9575b600080fd5b61014f61014a3660046113f3565b61032c565b60405190151581526020015b60405180910390f35b61016c61033d565b60405161015b9190611460565b61018c610187366004611473565b6103cf565b6040516001600160a01b03909116815260200161015b565b6101b76101b23660046114a8565b6103f8565b005b6101cc6101c73660046114d2565b610407565b60405190815260200161015b565b6101b76101e836600461154e565b6105ce565b6102006101fb36600461158a565b610659565b604080516001600160a01b03909316835260208301919091520161015b565b6101b761022d36600461154e565b6106de565b6101cc610240366004611473565b6000908152600b602052604090205490565b6101b76102603660046115ac565b6106fe565b61018c610273366004611473565b610711565b6101cc6102863660046115f8565b61071c565b6101b7610764565b6009546001600160a01b031661018c565b61016c610778565b6101b76102ba366004611613565b610787565b6101b76102cd366004611665565b610792565b61016c6102e0366004611473565b6107aa565b6102f86102f3366004611473565b6107b5565b60405161015b929190611741565b61014f61031436600461175a565b6108dd565b6101b76103273660046115f8565b61090b565b600061033782610949565b92915050565b60606002805461034c9061178d565b80601f01602080910402602001604051908101604052809291908181526020018280546103789061178d565b80156103c55780601f1061039a576101008083540402835291602001916103c5565b820191906000526020600020905b8154815290600101906020018083116103a857829003601f168201915b5050505050905090565b60006103da82610954565b506000828152600660205260409020546001600160a01b0316610337565b61040382823361098d565b5050565b60008361044a5760405162461bcd60e51b815260206004820152600c60248201526b092dcecc2d8d2c840d0c2e6d60a31b60448201526064015b60405180910390fd5b6000848152600b60205260409020541561049b5760405162461bcd60e51b8152602060048201526012602482015271105b1c9958591e481c9959da5cdd195c995960721b6044820152606401610441565b600c600081546104aa906117dd565b9190508190559050604051806040016040528085815260200184848080601f0160208091040260200160405190810160405280939291908181526020018383808284376000920182905250939094525050838152600a6020908152604090912083518155908301519091506001820190610524908261183e565b5050506000848152600b60205260409020819055610542338261099a565b6105828184848080601f0160208091040260200160405190810160405280939291908181526020018383808284376000920191909152506109b492505050565b336001600160a01b031684827f55769b59e7dadd8527e7a17b472106a39ebdb070393ae7f7f5322230ec1dc5ef86866040516105bf9291906118fe565b60405180910390a49392505050565b6001600160a01b0382166105f857604051633250574960e11b815260006004820152602401610441565b6000610605838333610a04565b9050836001600160a01b0316816001600160a01b031614610653576040516364283d7b60e01b81526001600160a01b0380861660048301526024820184905282166044820152606401610441565b50505050565b600082815260016020526040812080548291906001600160a01b03811690600160a01b90046001600160601b0316816106ad5750506000546001600160a01b03811690600160a01b90046001600160601b03165b60006127106106c56001600160601b0384168961192d565b6106cf9190611944565b92989297509195505050505050565b6106f983838360405180602001604052806000815250610792565b505050565b610706610afd565b6106f9838383610b2a565b600061033782610954565b60006001600160a01b038216610748576040516322718ad960e21b815260006004820152602401610441565b506001600160a01b031660009081526005602052604090205490565b61076c610afd565b6107766000610bec565b565b60606003805461034c9061178d565b610403338383610c3e565b61079d8484846105ce565b6106533385858585610cdd565b606061033782610e08565b600060606000831180156107cb5750600c548311155b61080b5760405162461bcd60e51b81526020600482015260116024820152702737b732bc34b9ba32b73a103a37b5b2b760791b6044820152606401610441565b6000600a6000858152602001908152602001600020604051806040016040529081600082015481526020016001820180546108459061178d565b80601f01602080910402602001604051908101604052809291908181526020018280546108719061178d565b80156108be5780601f10610893576101008083540402835291602001916108be565b820191906000526020600020905b8154815290600101906020018083116108a157829003601f168201915b5050505050815250509050806000015181602001519250925050915091565b6001600160a01b03918216600090815260076020908152604080832093909416825291909152205460ff1690565b610913610afd565b6001600160a01b03811661093d57604051631e4fbdf760e01b815260006004820152602401610441565b61094681610bec565b50565b600061033782610f19565b6000818152600460205260408120546001600160a01b03168061033757604051637e27328960e01b815260048101849052602401610441565b6106f98383836001610f3e565b610403828260405180602001604052806000815250611044565b60008281526008602052604090206109cc828261183e565b506040518281527ff8e1a15aba9398e019f0b49df1a4fde98ee17ae345cb5f6b5e2c27f5033e8ce79060200160405180910390a15050565b6000828152600460205260408120546001600160a01b0390811690831615610a3157610a3181848661105c565b6001600160a01b03811615610a6f57610a4e600085600080610f3e565b6001600160a01b038116600090815260056020526040902080546000190190555b6001600160a01b03851615610a9e576001600160a01b0385166000908152600560205260409020805460010190555b60008481526004602052604080822080546001600160a01b0319166001600160a01b0389811691821790925591518793918516917fddf252ad1be2c89b69c2b068fc378daa952ba7f163c4a11628f55a4df523b3ef91a4949350505050565b6009546001600160a01b031633146107765760405163118cdaa760e01b8152336004820152602401610441565b6127106001600160601b038216811015610b705760405163dfd1fc1b60e01b8152600481018590526001600160601b038316602482015260448101829052606401610441565b6001600160a01b038316610ba157604051634b4f842960e11b81526004810185905260006024820152604401610441565b506040805180820182526001600160a01b0393841681526001600160601b0392831660208083019182526000968752600190529190942093519051909116600160a01b029116179055565b600980546001600160a01b038381166001600160a01b0319831681179093556040519116919082907f8be0079c531659141344cd1fd0a4f28419497f9722a3daafe3b4186f6b6457e090600090a35050565b6001600160a01b038216610c7057604051630b61174360e31b81526001600160a01b0383166004820152602401610441565b6001600160a01b03838116600081815260076020908152604080832094871680845294825291829020805460ff191686151590811790915591519182527f17307eab39ab6107e8899845ad3d59bd9653f200f220920489ca2b5937696c31910160405180910390a3505050565b6001600160a01b0383163b15610e0157604051630a85bd0160e11b81526001600160a01b0384169063150b7a0290610d1f908890889087908790600401611966565b6020604051808303816000875af1925050508015610d5a575060408051601f3d908101601f19168201909252610d57918101906119a3565b60015b610dc3573d808015610d88576040519150601f19603f3d011682016040523d82523d6000602084013e610d8d565b606091505b508051600003610dbb57604051633250574960e11b81526001600160a01b0385166004820152602401610441565b805181602001fd5b6001600160e01b03198116630a85bd0160e11b14610dff57604051633250574960e11b81526001600160a01b0385166004820152602401610441565b505b5050505050565b6060610e1382610954565b5060008281526008602052604081208054610e2d9061178d565b80601f0160208091040260200160405190810160405280929190818152602001828054610e599061178d565b8015610ea65780601f10610e7b57610100808354040283529160200191610ea6565b820191906000526020600020905b815481529060010190602001808311610e8957829003601f168201915b505050505090506000610ec460408051602081019091526000815290565b90508051600003610ed6575092915050565b815115610f08578082604051602001610ef09291906119c0565b60405160208183030381529060405292505050919050565b610f11846110c0565b949350505050565b60006001600160e01b03198216632483248360e11b1480610337575061033782611135565b8080610f5257506001600160a01b03821615155b15611014576000610f6284610954565b90506001600160a01b03831615801590610f8e5750826001600160a01b0316816001600160a01b031614155b8015610fa15750610f9f81846108dd565b155b15610fca5760405163a9fbf51f60e01b81526001600160a01b0384166004820152602401610441565b81156110125783856001600160a01b0316826001600160a01b03167f8c5be1e5ebec7d5bd14f71427d1e84f3dd0314c0f7b2291e5b200ac8c7c3b92560405160405180910390a45b505b5050600090815260066020526040902080546001600160a01b0319166001600160a01b0392909216919091179055565b61104e8383611175565b6106f9336000858585610cdd565b6110678383836111da565b6106f9576001600160a01b03831661109557604051637e27328960e01b815260048101829052602401610441565b60405163177e802f60e01b81526001600160a01b038316600482015260248101829052604401610441565b60606110cb82610954565b5060006110e360408051602081019091526000815290565b90506000815111611103576040518060200160405280600081525061112e565b8061110d8461123d565b60405160200161111e9291906119c0565b6040516020818303038152906040525b9392505050565b60006001600160e01b031982166380ac58cd60e01b148061116657506001600160e01b03198216635b5e139f60e01b145b806103375750610337826112d0565b6001600160a01b03821661119f57604051633250574960e11b815260006004820152602401610441565b60006111ad83836000610a04565b90506001600160a01b038116156106f9576040516339e3563760e11b815260006004820152602401610441565b60006001600160a01b03831615801590610f115750826001600160a01b0316846001600160a01b03161480611214575061121484846108dd565b80610f115750506000908152600660205260409020546001600160a01b03908116911614919050565b6060600061124a83611305565b600101905060008167ffffffffffffffff81111561126a5761126a61164f565b6040519080825280601f01601f191660200182016040528015611294576020820181803683370190505b5090508181016020015b600019016f181899199a1a9b1b9c1cb0b131b232b360811b600a86061a8153600a850494508461129e57509392505050565b60006001600160e01b0319821663152a902d60e11b148061033757506301ffc9a760e01b6001600160e01b0319831614610337565b60008072184f03e93ff9f4daa797ed6e38ed64bf6a1f0160401b83106113445772184f03e93ff9f4daa797ed6e38ed64bf6a1f0160401b830492506040015b6d04ee2d6d415b85acef81000000008310611370576d04ee2d6d415b85acef8100000000830492506020015b662386f26fc10000831061138e57662386f26fc10000830492506010015b6305f5e10083106113a6576305f5e100830492506008015b61271083106113ba57612710830492506004015b606483106113cc576064830492506002015b600a83106103375760010192915050565b6001600160e01b03198116811461094657600080fd5b60006020828403121561140557600080fd5b813561112e816113dd565b60005b8381101561142b578181015183820152602001611413565b50506000910152565b6000815180845261144c816020860160208601611410565b601f01601f19169290920160200192915050565b60208152600061112e6020830184611434565b60006020828403121561148557600080fd5b5035919050565b80356001600160a01b03811681146114a357600080fd5b919050565b600080604083850312156114bb57600080fd5b6114c48361148c565b946020939093013593505050565b6000806000604084860312156114e757600080fd5b83359250602084013567ffffffffffffffff8082111561150657600080fd5b818601915086601f83011261151a57600080fd5b81358181111561152957600080fd5b87602082850101111561153b57600080fd5b6020830194508093505050509250925092565b60008060006060848603121561156357600080fd5b61156c8461148c565b925061157a6020850161148c565b9150604084013590509250925092565b6000806040838503121561159d57600080fd5b50508035926020909101359150565b6000806000606084860312156115c157600080fd5b833592506115d16020850161148c565b915060408401356001600160601b03811681146115ed57600080fd5b809150509250925092565b60006020828403121561160a57600080fd5b61112e8261148c565b6000806040838503121561162657600080fd5b61162f8361148c565b91506020830135801515811461164457600080fd5b809150509250929050565b634e487b7160e01b600052604160045260246000fd5b6000806000806080858703121561167b57600080fd5b6116848561148c565b93506116926020860161148c565b925060408501359150606085013567ffffffffffffffff808211156116b657600080fd5b818701915087601f8301126116ca57600080fd5b8135818111156116dc576116dc61164f565b604051601f8201601f19908116603f011681019083821181831017156117045761170461164f565b816040528281528a602084870101111561171d57600080fd5b82602086016020830137600060208483010152809550505050505092959194509250565b828152604060208201526000610f116040830184611434565b6000806040838503121561176d57600080fd5b6117768361148c565b91506117846020840161148c565b90509250929050565b600181811c908216806117a157607f821691505b6020821081036117c157634e487b7160e01b600052602260045260246000fd5b50919050565b634e487b7160e01b600052601160045260246000fd5b6000600182016117ef576117ef6117c7565b5060010190565b601f8211156106f9576000816000526020600020601f850160051c8101602086101561181f5750805b601f850160051c820191505b81811015610dff5782815560010161182b565b815167ffffffffffffffff8111156118585761185861164f565b61186c81611866845461178d565b846117f6565b602080601f8311600181146118a157600084156118895750858301515b600019600386901b1c1916600185901b178555610dff565b600085815260208120601f198616915b828110156118d0578886015182559484019460019091019084016118b1565b50858210156118ee5787850151600019600388901b60f8161c191681555b5050505050600190811b01905550565b60208152816020820152818360408301376000818301604090810191909152601f909201601f19160101919050565b8082028115828204841417610337576103376117c7565b60008261196157634e487b7160e01b600052601260045260246000fd5b500490565b6001600160a01b038581168252841660208201526040810183905260806060820181905260009061199990830184611434565b9695505050505050565b6000602082840312156119b557600080fd5b815161112e816113dd565b600083516119d2818460208801611410565b8351908301906119e6818360208801611410565b0194935050505056fea26469706673582212207c0280f7125064c3c1b9f98788a52f70605c692988f8b2326d2be2c83bce78c064736f6c63430008180033",
  "linkReferences": {},
  "deployedLinkReferences": {}
}