{
  "_format": "hh-sol-artifact-1",
  "contractName": "MediaEditionRegistry",
  "sourceName": "contracts/MediaEditionRegistry.sol",
  "abi": [
    {
      "inputs": [],
      "stateMutability": "nonpayable",
      "type": "constructor"
    },
    {
      "inputs": [
        {
          "internalType": "address",
          "name": "sender",
          "type": "address"
        },
        {
          "internalType": "uint256",
          "name": "balance",
          "type": "uint256"
        },
        {
          "internalType": "uint256",
          "name": "needed",
          "type": "uint256"
        },
        {
          "internalType": "uint256",
          "name": "tokenId",
          "type": "uint256"
        }
      ],
      "name": "ERC1155InsufficientBalance",
      "type": "error"
    },
    {
      "inputs": [
        {
          "internalType": "address",
          "name": "approver",
          "type": "address"
        }
      ],
      "name": "ERC1155InvalidApprover",
      "type": "error"
    },
    {
      "inputs": [
        {
          "internalType": "uint256",
          "name": "idsLength",
          "type": "uint256"
        },
        {
          "internalType": "uint256",
          "name": "valuesLength",
          "type": "uint256"
        }
      ],
      "name": "ERC1155InvalidArrayLength",
      "type": "error"
    },
    {
      "inputs": [
        {
          "internalType": "address",
          "name": "operator",
          "type": "address"
        }
      ],
      "name": "ERC1155InvalidOperator",
      "type": "error"
    },
    {
      "inputs": [
        {
          "internalType": "address",
          "name": "receiver",
          "type": "address"
        }
      ],
      "name": "ERC1155InvalidReceiver",
      "type": "error"
    },
    {
      "inputs": [
        {
          "internalType": "address",
          "name": "sender",
          "type": "address"
        }
      ],
      "name": "ERC1155InvalidSender",
      "type": "error"
    },
    {
      "inputs": [
        {
          "internalType": "address",
          "name": "operator",
          "type": "address"
        },
        {
          "internalType": "address",
          "name": "owner",
          "type": "address"
        }
      ],
      "name": "ERC1155MissingApprovalForAll",
      "type": "error"
    },
    {
      "inputs": [
        {
          "internalType": "uint256",
          "name": "numerator",
          "type": "uint256"
        },
        {
          "internalType": "uint256",
          "name": "denominator",
          "type": "uint256"
        }
      ],
      "name": "ERC2981InvalidDefaultRoyalty",
      "type": "error"
    },
    {
      "inputs": [
        {
          "internalType": "address",
          "name": "receiver",
          "type": "address"
        }
      ],
      "name": "ERC2981InvalidDefaultRoyaltyReceiver",
      "type": "error"
    },
    {
      "inputs": [
        {
          "internalType": "uint256",
          "name": "tokenId",
          "type": "uint256"
        },
        {
          "internalType": "uint256",
          "name": "numerator",
          "type": "uint256"
        },
        {
          "internalType": "uint256",
          "name": "denominator",
          "type": "uint256"
        }
      ],
      "name": "ERC2981InvalidTokenRoyalty",
      "type": "error"
    },
    {
      "inputs": [
        {
          "internalType": "uint256",
          "name": "tokenId",
          "type": "uint256"
        },
        {
          "internalType": "address",
          "name": "receiver",
          "type": "address"
        }
      ],
      "name": "ERC2981InvalidTokenRoyaltyReceiver",
      "type": "error"
    },
    {
      "inputs": [
        {
          "internalType": "address",
          "name": "owner",
          "type": "address"
        }
      ],
      "name": "OwnableInvalidOwner",
      "type": "error"
    },
    {
      "inputs": [
        {
          "internalType": "address",
          "name": "account",
          "type": "address"
        }
      ],
      "name": "OwnableUnauthorizedAccount",
      "type": "error"
    },
    {
      "anonymous": false,
      "inputs": [
        {
          "indexed": true,
          "internalType": "address",
          "name": "account",
          "type": "address"
        },
        {
          "indexed": true,
          "internalType": "address",
          "name": "operator",
          "type": "address"
        },
        {
          "indexed": false,
          "internalType": "bool",
          "name": "approved",
          "type": "bool"
        }
      ],
      "name": "ApprovalForAll",
      "type": "event"
    },
    {
      "anonymous": false,
      "inputs": [
        {
          "indexed": true,
          "internalType": "uint256",
          "name": "tokenId",
          "type": "uint256"
        },
        {
          "indexed": true,
          "internalType": "bytes32",
          "name": "contentHash",
          "type": "bytes32"
        },
        {
          "indexed": false,
          "internalType": "string",
          "name": "metadataURI",
          "type": "string"
        },
        {
          "indexed": false,
          "internalType": "uint256",
          "name": "amount",
          "type": "uint256"
        },
        {
          "indexed": true,
          "internalType": "address",
          "name": "creator",
          "type": "address"
        }
      ],
      "name": "EditionRegistered",
      "type": "event"
    },
    {
      "anonymous": false,
      "inputs": [
        {
          "indexed": true,
          "internalType": "address",
          "name": "previousOwner",
          "type": "address"
        },
        {
          "indexed": true,
          "internalType": "address",
          "name": "newOwner",
          "type": "address"
        }
      ],
      "name": "OwnershipTransferred",
      "type": "event"
    },
    {
      "anonymous": false,
      "inputs": [
        {
          "indexed": true,
          "internalType": "address",
          "name": "operator",
          "type": "address"
        },
        {
          "indexed": true,
          "internalType": "address",
          "name": "from",
          "type": "address"
        },
        {
          "indexed": true,
          "internalType": "address",
          "name": "to",
          "type": "address"
        },
        {
          "indexed": false,
          "internalType": "uint256[]",
          "name": "ids",
          "type": "uint256[]"
        },
        {
          "indexed": false,
          "internalType": "uint256[]",
          "name": "values",
          "type": "uint256[]"
        }
      ],
      "name": "TransferBatch",
      "type": "event"
    },
    {
      "anonymous": false,
      "inputs": [
        {
          "indexed": true,
          "internalType": "address",
          "name": "operator",
          "type": "address"
        },
        {
          "indexed": true,
          "internalType": "address",
          "name": "from",
          "type": "address"
        },
        {
          "indexed": true,
          "internalType": "address",
          "name": "to",
          "type": "address"
        },
        {
          "indexed": false,
          "internalType": "uint256",
          "name": "id",
          "type": "uint256"
        },
        {
          "indexed": false,
          "internalType": "uint256",
          "name": "value",
          "type": "uint256"
        }
      ],
      "name": "TransferSingle",
      "type": "event"
    },
    {
      "anonymous": false,
      "inputs": [
        {
          "indexed": false,
          "internalType": "string",
          "name": "value",
          "type": "string"
        },
        {
          "indexed": true,
          "internalType": "uint256",
          "name": "id",
          "type": "uint256"
        }
      ],
      "name": "URI",
      "type": "event"
    },
    {
      "inputs": [
        {
          "internalType": "address",
          "name": "account",
          "type": "address"
        },
        {
          "internalType": "uint256",
          "name": "id",
          "type": "uint256"
        }
      ],
      "name": "balanceOf",
      "outputs": [
        {
          "internalType": "uint256",
          "name": "",
          "type": "uint256"
        }
      ],
      "stateMutability": "view",
      "type": "function"
    },
    {
      "inputs": [
        {
          "internalType": "address[]",
          "name": "accounts",
          "type": "address[]"
        },
        {
          "internalType": "uint256[]",
          "name": "ids",
          "type": "uint256[]"
        }
      ],
      "name": "balanceOfBatch",
      "outputs": [
        {
          "internalType": "uint256[]",
          "name": "",
          "type": "uint256[]"
        }
      ],
      "stateMutability": "view",
      "type": "function"
    },
    {
      "inputs": [
        {
          "internalType": "uint256",
          "name": "id",
          "type": "uint256"
        }
      ],
      "name": "exists",
      "outputs": [
        {
          "internalType": "bool",
          "name": "",
          "type": "bool"
        }
      ],
      "stateMutability": "view",
      "type": "function"
    },
    {
      "inputs": [
        {
          "internalType": "uint256",
          "name": "tokenId",
          "type": "uint256"
        }
      ],
      "name": "getEdition",
      "outputs": [
        {
          "internalType": "bytes32",
          "name": "contentHash",
          "type": "bytes32"
        },
        {
          "internalType": "string",
          "name": "metadataURI",
          "type": "string"
        },
        {
          "internalType": "uint256",
          "name": "supply",
          "type": "uint256"
        }
      ],
      "stateMutability": "view",
      "type": "function"
    },
    {
      "inputs": [
        {
          "internalType": "bytes32",
          "name": "",
          "type": "bytes32"
        }
      ],
      "name": "hashToTokenId",
      "outputs": [
        {
          "internalType": "uint256",
          "name": "",
          "type": "uint256"
        }
      ],
      "stateMutability": "view",
      "type": "function"
    },
    {
      "inputs": [
        {
          "internalType": "address",
          "name": "account",
          "type": "address"
        },
        {
          "internalType": "address",
          "name": "operator",
          "type": "address"
        }
      ],
      "name": "isApprovedForAll",
      "outputs": [
        {
          "internalType": "bool",
          "name": "",
          "type": "bool"
        }
      ],
      "stateMutability": "view",
      "type": "function"
    },
    {
      "inputs": [],
      "name": "owner",
      "outputs": [
        {
          "internalType": "address",
          "name": "",
          "type": "address"
        }
      ],
      "stateMutability": "view",
      "type": "function"
    },
    {
      "inputs": [
        {
          "internalType": "bytes32",
          "name": "contentHash",
          "type": "bytes32"
        },
        {
          "internalType": "string",
          "name": "metadataURI",
          "type": "string"
        },
        {
          "internalType": "uint256",
          "name": "amount",
          "type": "uint256"
        }
      ],
      "name": "registerEdition",
      "outputs": [
        {
          "internalType": "uint256",
          "name": "tokenId",
          "type": "uint256"
        }
      ],
      "stateMutability": "nonpayable",
      "type": "function"
    },
    {
      "inputs": [],
      "name": "renounceOwnership",
      "outputs": [],
      "stateMutability": "nonpayable",
      "type": "function"
    },
    {
      "inputs": [
        {
          "internalType": "uint256",
          "name": "tokenId",
          "type": "uint256"
        },
        {
          "internalType": "uint256",
          "name": "salePrice",
          "type": "uint256"
        }
      ],
      "name": "royaltyInfo",
      "outputs": [
        {
          "internalType": "address",
          "name": "receiver",
          "type": "address"
        },
        {
          "internalType": "uint256",
          "name": "amount",
          "type": "uint256"
        }
      ],
      "stateMutability": "view",
      "type": "function"
    },
    {
      "inputs": [
        {
          "internalType": "address",
          "name": "from",
          "type": "address"
        },
        {
          "internalType": "address",
          "name": "to",
          "type": "address"
        },
        {
          "internalType": "uint256[]",
          "name": "ids",
          "type": "uint256[]"
        },
        {
          "internalType": "uint256[]",
          "name": "values",
          "type": "uint256[]"
        },
        {
          "internalType": "bytes",
          "name": "data",
          "type": "bytes"
        }
      ],
      "name": "safeBatchTransferFrom",
      "outputs": [],
      "stateMutability": "nonpayable",
      "type": "function"
    },
    {
      "inputs": [
        {
          "internalType": "address",
          "name": "from",
          "type": "address"
        },
        {
          "internalType": "address",
          "name": "to",
          "type": "address"
        },
        {
          "internalType": "uint256",
          "name": "id",
          "type": "uint256"
        },
        {
          "internalType": "uint256",
          "name": "value",
          "type": "uint256"
        },
        {
          "internalType": "bytes",
          "name": "data",
          "type": "bytes"
        }
      ],
      "name": "safeTransferFrom",
      "outputs": [],
      "stateMutability": "nonpayable",
      "type": "function"
    },
    {
      "inputs": [
        {
          "internalType": "address",
          "name": "operator",
          "type": "address"
        },
        {
          "internalType": "bool",
          "name": "approved",
          "type": "bool"
        }
      ],
      "name": "setApprovalForAll",
      "outputs": [],
      "stateMutability": "nonpayable",
      "type": "function"
    },
    {
      "inputs": [
        {
          "internalType": "bytes4",
          "name": "interfaceId",
          "type": "bytes4"
        }
      ],
      "name": "supportsInterface",
      "outputs": [
        {
          "internalType": "bool",
          "name": "",
          "type": "bool"
        }
      ],
      "stateMutability": "view",
      "type": "function"
    },
    {
      "inputs": [],
      "name": "totalSupply",
      "outputs": [
        {
          "internalType": "uint256",
          "name": "",
          "type": "uint256"
        }
      ],
      "stateMutability": "view",
      "type": "function"
    },
    {
      "inputs": [
        {
          "internalType": "uint256",
          "name": "id",
          "type": "uint256"
        }
      ],
      "name": "totalSupply",
      "outputs": [
        {
          "internalType": "uint256",
          "name": "",
          "type": "uint256"
        }
      ],
      "stateMutability": "view",
      "type": "function"
    },
    {
      "inputs": [
        {
          "internalType": "address",
          "name": "newOwner",
          "type": "address"
        }
      ],
      "name": "transferOwnership",
      "outputs": [],
      "stateMutability": "nonpayable",
      "type": "function"
    },
    {
      "inputs": [
        {
          "internalType": "uint256",
          "name": "tokenId",
          "type": "uint256"
        }
      ],
      "name": "uri",
      "outputs": [
        {
          "internalType": "string",
          "name": "",
          "type": "string"
        }
      ],
      "stateMutability": "view",
      "type": "function"
    },
    {
      "inputs": [
        {
          "internalType": "bytes32",
          "name": "contentHash",
          "type": "bytes32"
        }
      ],
      "name": "verifyContent",
      "outputs": [
        {
          "internalType": "uint256",
          "name": "tokenId",
          "type": "uint256"
        }
      ],
      "stateMutability": "view",
      "type": "function"
    }
  ],
  "bytecode": "0x60806040526001600b553480156200001657600080fd5b506040805160208101909152600081523390620000338162000084565b506001600160a01b0381166200006457604051631e4fbdf760e01b8152600060048201526024015b60405180910390fd5b6200006f8162000096565b506200007e336101f4620000e8565b62000302565b600262000092828262000236565b5050565b600780546001600160a01b038381166001600160a01b0319831681179093556040519116919082907f8be0079c531659141344cd1fd0a4f28419497f9722a3daafe3b4186f6b6457e090600090a35050565b6127106001600160601b0382168110156200012957604051636f483d0960e01b81526001600160601b0383166004820152602481018290526044016200005b565b6001600160a01b0383166200015557604051635b6cc80560e11b8152600060048201526024016200005b565b50604080518082019091526001600160a01b039092168083526001600160601b039091166020909201829052600160a01b90910217600555565b634e487b7160e01b600052604160045260246000fd5b600181811c90821680620001ba57607f821691505b602082108103620001db57634e487b7160e01b600052602260045260246000fd5b50919050565b601f82111562000231576000816000526020600020601f850160051c810160208610156200020c5750805b601f850160051c820191505b818110156200022d5782815560010162000218565b5050505b505050565b81516001600160401b038111156200025257620002526200018f565b6200026a81620002638454620001a5565b84620001e1565b602080601f831160018114620002a25760008415620002895750858301515b600019600386901b1c1916600185901b1785556200022d565b600085815260208120601f198616915b82811015620002d357888601518255948401946001909101908401620002b2565b5085821015620002f25787850151600019600388901b60f8161c191681555b5050505050600190811b01905550565b611af480620003126000396000f3fe608060405234801561001057600080fd5b50600436106101205760003560e01c8063715018a6116100ad578063bf98b08411610071578063bf98b084146102b7578063e985e9c5146102ca578063f242432a146102dd578063f2fde38b146102f0578063f51f74a91461030357600080fd5b8063715018a61461023f5780638da5cb5b14610247578063a22cb46514610262578063a642c03214610275578063bd85b0391461029757600080fd5b80632a55205a116100f45780632a55205a146101965780632eb2c2d6146101c8578063430fe759146101dd5780634e1273f4146101fd5780634f558e791461021d57600080fd5b8062fdd58e1461012557806301ffc9a71461014b5780630e89341c1461016e57806318160ddd1461018e575b600080fd5b61013861013336600461122a565b610323565b6040519081526020015b60405180910390f35b61015e61015936600461126a565b61034b565b6040519015158152602001610142565b61018161017c36600461128e565b610356565b60405161014291906112ed565b600454610138565b6101a96101a4366004611300565b6103f8565b604080516001600160a01b039093168352602083019190915201610142565b6101db6101d636600461146c565b61047d565b005b6101386101eb36600461128e565b6000908152600a602052604090205490565b61021061020b366004611516565b6104e9565b6040516101429190611612565b61015e61022b36600461128e565b600090815260036020526040902054151590565b6101db6105b6565b6007546040516001600160a01b039091168152602001610142565b6101db610270366004611625565b6105ca565b61028861028336600461128e565b6105d9565b60405161014293929190611661565b6101386102a536600461128e565b60009081526003602052604090205490565b6101386102c536600461168a565b6106a9565b61015e6102d836600461170c565b610844565b6101db6102eb36600461173f565b610872565b6101db6102fe3660046117a4565b6108d1565b61013861031136600461128e565b600a6020526000908152604090205481565b6000818152602081815260408083206001600160a01b03861684529091529020545b92915050565b60006103458261090f565b6000818152600960205260409020805460609190610373906117bf565b80601f016020809104026020016040519081016040528092919081815260200182805461039f906117bf565b80156103ec5780601f106103c1576101008083540402835291602001916103ec565b820191906000526020600020905b8154815290600101906020018083116103cf57829003601f168201915b50505050509050919050565b600082815260066020526040812080548291906001600160a01b03811690600160a01b90046001600160601b03168161044c5750506005546001600160a01b03811690600160a01b90046001600160601b03165b60006127106104646001600160601b0384168961180f565b61046e9190611826565b92989297509195505050505050565b336001600160a01b038616811480159061049e575061049c8682610844565b155b156104d45760405163711bec9160e11b81526001600160a01b038083166004830152871660248201526044015b60405180910390fd5b6104e18686868686610934565b505050505050565b6060815183511461051a5781518351604051635b05999160e01b8152600481019290925260248201526044016104cb565b6000835167ffffffffffffffff81111561053657610536611322565b60405190808252806020026020018201604052801561055f578160200160208202803683370190505b50905060005b84518110156105ae5760208082028601015161058990602080840287010151610323565b82828151811061059b5761059b611848565b6020908102919091010152600101610565565b509392505050565b6105be61099b565b6105c860006109c8565b565b6105d5338383610a1a565b5050565b60008181526008602090815260408083208151808401835290548082528585526009845282852060039094529184205460609385939181805461061b906117bf565b80601f0160208091040260200160405190810160405280929190818152602001828054610647906117bf565b80156106945780601f1061066957610100808354040283529160200191610694565b820191906000526020600020905b81548152906001019060200180831161067757829003601f168201915b50505050509150935093509350509193909250565b6000846106e75760405162461bcd60e51b815260206004820152600c60248201526b092dcecc2d8d2c840d0c2e6d60a31b60448201526064016104cb565b6000858152600a6020526040902054156107385760405162461bcd60e51b8152602060048201526012602482015271105b1c9958591e481c9959da5cdd195c995960721b60448201526064016104cb565b600082116107765760405162461bcd60e51b815260206004820152600b60248201526a416d6f756e74207a65726f60a81b60448201526064016104cb565b600b80549060006107868361185e565b9091555060408051602080820183528882526000848152600882528381209251909255888252600a815282822084905583825260099052209091506107cc8486836118c4565b506107e833828460405180602001604052806000815250610ab0565b6107f581336101f4610b0d565b336001600160a01b031685827fb571eab11aaf3343882f20e1135f67a74e26b474766cec27df7b8ccea495527387878760405161083493929190611984565b60405180910390a4949350505050565b6001600160a01b03918216600090815260016020908152604080832093909416825291909152205460ff1690565b336001600160a01b038616811480159061089357506108918682610844565b155b156108c45760405163711bec9160e11b81526001600160a01b038083166004830152871660248201526044016104cb565b6104e18686868686610bcf565b6108d961099b565b6001600160a01b03811661090357604051631e4fbdf760e01b8152600060048201526024016104cb565b61090c816109c8565b50565b60006001600160e01b0319821663152a902d60e11b1480610345575061034582610c5d565b6001600160a01b03841661095e57604051632bfa23e760e11b8152600060048201526024016104cb565b6001600160a01b03851661098757604051626a0d4560e21b8152600060048201526024016104cb565b6109948585858585610cad565b5050505050565b6007546001600160a01b031633146105c85760405163118cdaa760e01b81523360048201526024016104cb565b600780546001600160a01b038381166001600160a01b0319831681179093556040519116919082907f8be0079c531659141344cd1fd0a4f28419497f9722a3daafe3b4186f6b6457e090600090a35050565b6001600160a01b038216610a435760405162ced3e160e81b8152600060048201526024016104cb565b6001600160a01b03838116600081815260016020908152604080832094871680845294825291829020805460ff191686151590811790915591519182527f17307eab39ab6107e8899845ad3d59bd9653f200f220920489ca2b5937696c31910160405180910390a3505050565b6001600160a01b038416610ada57604051632bfa23e760e11b8152600060048201526024016104cb565b604080516001808252602082018690528183019081526060820185905260808201909252906104e1600087848487610cad565b6127106001600160601b038216811015610b535760405163dfd1fc1b60e01b8152600481018590526001600160601b0383166024820152604481018290526064016104cb565b6001600160a01b038316610b8457604051634b4f842960e11b815260048101859052600060248201526044016104cb565b506040805180820182526001600160a01b0393841681526001600160601b0392831660208083019182526000968752600690529190942093519051909116600160a01b029116179055565b6001600160a01b038416610bf957604051632bfa23e760e11b8152600060048201526024016104cb565b6001600160a01b038516610c2257604051626a0d4560e21b8152600060048201526024016104cb565b60408051600180825260208201869052818301908152606082018590526080820190925290610c548787848487610cad565b50505050505050565b60006001600160e01b03198216636cdb3d1360e11b1480610c8e57506001600160e01b031982166303a24d0760e21b145b8061034557506301ffc9a760e01b6001600160e01b0319831614610345565b610cb985858585610d00565b6001600160a01b038416156109945782513390600103610cf25760208481015190840151610ceb838989858589610ded565b50506104e1565b6104e1818787878787610f11565b610d0c84848484610ffa565b6001600160a01b038416610d8c576000805b8351811015610d725760208181028481018201519086018201516000908152600390925260408220805491928392610d579084906119bd565b90915550610d67905081846119bd565b925050600101610d1e565b508060046000828254610d8591906119bd565b9091555050505b6001600160a01b038316610de7576000805b8351811015610ddb576020818102848101820151908601820151600090815260039092526040909120805482900390559190910190600101610d9e565b50600480549190910390555b50505050565b6001600160a01b0384163b156104e15760405163f23a6e6160e01b81526001600160a01b0385169063f23a6e6190610e3190899089908890889088906004016119d0565b6020604051808303816000875af1925050508015610e6c575060408051601f3d908101601f19168201909252610e6991810190611a15565b60015b610ed5573d808015610e9a576040519150601f19603f3d011682016040523d82523d6000602084013e610e9f565b606091505b508051600003610ecd57604051632bfa23e760e11b81526001600160a01b03861660048201526024016104cb565b805181602001fd5b6001600160e01b0319811663f23a6e6160e01b14610c5457604051632bfa23e760e11b81526001600160a01b03861660048201526024016104cb565b6001600160a01b0384163b156104e15760405163bc197c8160e01b81526001600160a01b0385169063bc197c8190610f559089908990889088908890600401611a32565b6020604051808303816000875af1925050508015610f90575060408051601f3d908101601f19168201909252610f8d91810190611a15565b60015b610fbe573d808015610e9a576040519150601f19603f3d011682016040523d82523d6000602084013e610e9f565b6001600160e01b0319811663bc197c8160e01b14610c5457604051632bfa23e760e11b81526001600160a01b03861660048201526024016104cb565b80518251146110295781518151604051635b05999160e01b8152600481019290925260248201526044016104cb565b3360005b835181101561112f576020818102858101820151908501909101516001600160a01b038816156110e0576000828152602081815260408083206001600160a01b038c168452909152902054818110156110b9576040516303dee4c560e01b81526001600160a01b038a1660048201526024810182905260448101839052606481018490526084016104cb565b6000838152602081815260408083206001600160a01b038d16845290915290209082900390555b6001600160a01b03871615611125576000828152602081815260408083206001600160a01b038b1684529091528120805483929061111f9084906119bd565b90915550505b505060010161102d565b5082516001036111b05760208301516000906020840151909150856001600160a01b0316876001600160a01b0316846001600160a01b03167fc3d58168c5ae7397731d063d5bbf3d657854427343f4c083240f7aacaa2d0f6285856040516111a1929190918252602082015260400190565b60405180910390a45050610994565b836001600160a01b0316856001600160a01b0316826001600160a01b03167f4a39dc06d4c0dbc64b70af90fd698a233a518aa5d07e595d983b8c0526c8f7fb86866040516111ff929190611a90565b60405180910390a45050505050565b80356001600160a01b038116811461122557600080fd5b919050565b6000806040838503121561123d57600080fd5b6112468361120e565b946020939093013593505050565b6001600160e01b03198116811461090c57600080fd5b60006020828403121561127c57600080fd5b813561128781611254565b9392505050565b6000602082840312156112a057600080fd5b5035919050565b6000815180845260005b818110156112cd576020818501810151868301820152016112b1565b506000602082860101526020601f19601f83011685010191505092915050565b60208152600061128760208301846112a7565b6000806040838503121561131357600080fd5b50508035926020909101359150565b634e487b7160e01b600052604160045260246000fd5b604051601f8201601f1916810167ffffffffffffffff8111828210171561136157611361611322565b604052919050565b600067ffffffffffffffff82111561138357611383611322565b5060051b60200190565b600082601f83011261139e57600080fd5b813560206113b36113ae83611369565b611338565b8083825260208201915060208460051b8701019350868411156113d557600080fd5b602086015b848110156113f157803583529183019183016113da565b509695505050505050565b600082601f83011261140d57600080fd5b813567ffffffffffffffff81111561142757611427611322565b61143a601f8201601f1916602001611338565b81815284602083860101111561144f57600080fd5b816020850160208301376000918101602001919091529392505050565b600080600080600060a0868803121561148457600080fd5b61148d8661120e565b945061149b6020870161120e565b9350604086013567ffffffffffffffff808211156114b857600080fd5b6114c489838a0161138d565b945060608801359150808211156114da57600080fd5b6114e689838a0161138d565b935060808801359150808211156114fc57600080fd5b50611509888289016113fc565b9150509295509295909350565b6000806040838503121561152957600080fd5b823567ffffffffffffffff8082111561154157600080fd5b818501915085601f83011261155557600080fd5b813560206115656113ae83611369565b82815260059290921b8401810191818101908984111561158457600080fd5b948201945b838610156115a95761159a8661120e565b82529482019490820190611589565b965050860135925050808211156115bf57600080fd5b506115cc8582860161138d565b9150509250929050565b60008151808452602080850194506020840160005b83811015611607578151875295820195908201906001016115eb565b509495945050505050565b60208152600061128760208301846115d6565b6000806040838503121561163857600080fd5b6116418361120e565b91506020830135801515811461165657600080fd5b809150509250929050565b83815260606020820152600061167a60608301856112a7565b9050826040830152949350505050565b600080600080606085870312156116a057600080fd5b84359350602085013567ffffffffffffffff808211156116bf57600080fd5b818701915087601f8301126116d357600080fd5b8135818111156116e257600080fd5b8860208285010111156116f457600080fd5b95986020929092019750949560400135945092505050565b6000806040838503121561171f57600080fd5b6117288361120e565b91506117366020840161120e565b90509250929050565b600080600080600060a0868803121561175757600080fd5b6117608661120e565b945061176e6020870161120e565b93506040860135925060608601359150608086013567ffffffffffffffff81111561179857600080fd5b611509888289016113fc565b6000602082840312156117b657600080fd5b6112878261120e565b600181811c908216806117d357607f821691505b6020821081036117f357634e487b7160e01b600052602260045260246000fd5b50919050565b634e487b7160e01b600052601160045260246000fd5b8082028115828204841417610345576103456117f9565b60008261184357634e487b7160e01b600052601260045260246000fd5b500490565b634e487b7160e01b600052603260045260246000fd5b600060018201611870576118706117f9565b5060010190565b601f8211156118bf576000816000526020600020601f850160051c810160208610156118a05750805b601f850160051c820191505b818110156104e1578281556001016118ac565b505050565b67ffffffffffffffff8311156118dc576118dc611322565b6118f0836118ea83546117bf565b83611877565b6000601f841160018114611924576000851561190c5750838201355b600019600387901b1c1916600186901b178355610994565b600083815260209020601f19861690835b828110156119555786850135825560209485019460019092019101611935565b50868210156119725760001960f88860031b161c19848701351681555b505060018560011b0183555050505050565b604081528260408201528284606083013760006060848301015260006060601f19601f8601168301019050826020830152949350505050565b80820180821115610345576103456117f9565b6001600160a01b03868116825285166020820152604081018490526060810183905260a060808201819052600090611a0a908301846112a7565b979650505050505050565b600060208284031215611a2757600080fd5b815161128781611254565b6001600160a01b0386811682528516602082015260a060408201819052600090611a5e908301866115d6565b8281036060840152611a7081866115d6565b90508281036080840152611a8481856112a7565b98975050505050505050565b604081526000611aa360408301856115d6565b8281036020840152611ab581856115d6565b9594505050505056fea2646970667358221220cb1867ae66f89021f455c09f0b24f063fed4d5f19c8588d7d3444f79c9e933e164736f6c63430008180033",
  "linkReferences": {},
  "deployedLinkReferences": {}
}